:020000040800F2
:10000000100400209D010008930B0008D50A000889
:10001000910B0008A9020008290C0008000000004C
:10002000000000000000000000000000970B000826
:10003000AB02000800000000950B0008990B0008B7
:10004000B7010008B7010008B7010008B7010008B0
:10005000B7010008B7010008B7010008B7010008A0
:10006000B7010008B7010008B7010008B701000890
:10007000B7010008B7010008B7010008B701000880
:10008000B7010008B7010008B7010008B701000870
:10009000B7010008B7010008B7010008B701000860
:1000A000B7010008B7010008B7010008B701000850
:1000B000B7010008B7010008B7010008B701000840
:1000C000B7010008B7010008B7010008B701000830
:1000D000B7010008B7010008B7010008B701000820
:1000E000B7010008B7010008B7010008B701000810
:1000F000B7010008B7010008B7010008B701000800
:10010000B7010008B7010008B7010008B7010008EF
:10011000B7010008B7010008B7010008B7010008DF
:10012000B7010008B7010008B7010008B7010008CF
:10013000B7010008B7010008B7010008B7010008BF
:10014000B7010008B7010008B7010008B7010008AF
:10015000B7010008B7010008B7010008B70100089F
:10016000B7010008B7010008B7010008B70100088F
:10017000B7010008B7010008B7010008000000003F
:10018000B7010008B7010008DFF80CD000F07AF8DA
:1001900000480047B90C00081004002006488047BA
:1001A00006480047FEE7FEE7FEE7FEE7FEE7FEE75C
:1001B000FEE7FEE7FEE7FEE70D0C000889010008F8
:1001C0002DE9F05F0546002092469B46884606468C
:1001D000814640241BE0284641464746224600F01F
:1001E00041F853465A46C01A914110D31146184659
:1001F000224600F028F82D1A67EB01084F462246E8
:100200000120002100F01FF817EB00094E41201ECD
:10021000A4F10104DFDC484631462A464346BDE8E6
:10022000F09FD2B201E000F8012B491EFBD27047CB
:100230000022F6E710B513460A4604461946FFF7B2
:10024000F0FF204610BD202A04DB203A00FA02F11C
:10025000002070479140C2F1200320FA03F31943B4
:1002600090407047202A04DB203A21FA02F0002156
:10027000704721FA02F3D040C2F1200291400843B6
:1002800019467047064C074D06E0E06840F0010350
:1002900094E8070098471034AC42F6D3FFF778FF94
:1002A000D41A0008F41A0008FEE7704770B5044637
:1002B00000F0F0F80546601C02D0044800780444C1
:1002C00000F0E8F8401BA042FAD370BD0000002007
:1002D0002DE9F84F00224FF0010803254FF00F0ED3
:1002E0000B6808FA02F42340A3426ED14E68012E37
:1002F00005D0022E03D0112E01D0122E12D1866805
:100300004FEA420C05FA0CF7BE43CF6807FA0CF728
:10031000374387604668A6430C79C4F300149440C1
:1003200034434460C668570005FA07FC8C6826EA27
:100330000C06BC403443C4604C68022C01D0122C23
:1003400013D1D40800EB8404A346D4F820905407BA
:100350004FEAD46A0EFA0AF629EA06090E6906FA85
:100360000AF646EA0906CBF8206006680C7926EA08
:100370000C0604F00304BC40344304604C68E40001
:1003800065D5364C266846F480462660246822F0FF
:10039000030604F480440094314C3444A446D4F859
:1003A00008489607370F0EFA07F6B4432D4EB042B1
:1003B00001D1002624E02C4EB04201D101261FE0DD
:1003C0002A4EB04202D102261AE040E0284EB04246
:1003D00001D1032614E0274EB04201D104260FE0DC
:1003E000254EB04201D105260AE0244EB04201D18B
:1003F000062605E0224EB04201D1072600E008267D
:10040000BE402643CCF808681E4E34684F689C43B3
:10041000FF0300D51C4334601A4C241D26684F6826
:100420009E43BF0300D51E432660164E083634682F
:100430004F689C43FF0200D51C433460114E0C36BC
:1004400034684F689C43BF0200D51C433460521C83
:10045000102AFFF445AFBDE8F88F00004438024091
:100460000030014000000240000402400008024049
:10047000000C02400010024000140240001802402C
:10048000001C0240003C01400AB181617047090430
:10049000FBE7000001488068704700000000002072
:1004A0000248816802781144816070470000002092
:1004B0000B4810B5016841F400710160016841F416
:1004C00080610160016841F480710160032000F0E7
:1004D00061F8002000F006F800F024F8002010BDBC
:1004E000003C024070B50D4D04464FF47A712878F7
:1004F000B1FBF0F00A490968B1FBF0F000F0D6FA60
:1005000048B9102C07D200222146501E00F022F8D4
:1005100000206C6070BD012070BD00000000002054
:100520000C0000200A4808B5016841F480410160D0
:10053000006800F4804000900548001F016841F009
:1005400080510160006800F08050009008BD0000FC
:1005500044380240F0B40E4B1B680C46C3F3022330
:10056000C3F10705042D00D90425191D072901D25F
:10057000002300E0DB1E012606FA05F1491E21409A
:1005800099409E40761E16403143F0BC00F04DBBB2
:100590000CED00E0064900F0070208684FF6FF0383
:1005A000184040EA0220034A1043086070470000E8
:1005B0000CED00E00000FA052DE9F0470E460500BD
:1005C00065D0DFF81481D8F80000F7B200F00F0012
:1005D000B04207D288F80070D8F8000000F00F0091
:1005E000B04254D128683D4C810712D5400703D54D
:1005F000206840F4E05020602878000703D5206888
:1006000040F4604020602068A96820F0F0000843B2
:1006100020602878C0072DD0304968680839012843
:1006200012D0022813D0032811D0096889070029A5
:100630002DDA216821F0030101432160FFF72AFF31
:10064000814641F2883A0EE009688903EFE70968BC
:100650008901ECE7FFF71EFFA0EB0901514502D924
:100660000320BDE8F0872068696800F00C00B0EB5B
:10067000810FEFD1D8F80010404601F00F01B142D0
:1006800007D90770006800F00F00B04201D00120C8
:10069000E7E72878400705D52068E96820F4E050AE
:1006A000084320602878000706D52068296920F4CF
:1006B000604040EAC100206000F018F82168084A54
:1006C000C1F30311515CC840064908600648006840
:1006D000FFF708FF0020C4E7003C02400838024052
:1006E000C41A00080C00002004000020154810B5B2
:1006F000006810F00C02144813D01449042A0FD0DB
:10070000082A0ED10F4C241F2268236802F03F02F2
:100710005B0207D52068C0F38810A0FB010106E04A
:10072000084610BD2168C1F38811A1FB0001002318
:10073000FFF746FD2168C1F30141491C4900B0FBA8
:10074000F1F010BD083802400024F40040787D012B
:100750002DE9F84F04006ED02078DFF83C93C007F5
:10076000A9F104054AD009F104000168C1F381012F
:10077000012908D00068C0F3810002280AD1D9F805
:100780000000400206D52868800337D5606800283D
:10079000E1D033E06068B0F5803F10D0B0F5A02F15
:1007A000286810D020F480302860286820F4802049
:1007B00028606068A8B1FFF76DFE06460DE0286866
:1007C00040F48030F4E740F480202860F7E700BF71
:1007D000FFF760FE801B642873D828688003F7D574
:1007E0000CE0FFF757FE064605E000BFFFF752FE9C
:1007F000801B6428F0D828688003F7D42078DFF8BD
:100800009C8280074FF0000A3ED5A348001D016876
:1008100011F00C0F08D00068C0F3810002280BD142
:10082000D9F80000400207D42868800716D5E06890
:10083000012800D112E02BE1E068B8B10120C8F82E
:100840000000FFF727FE064605E000BFFFF722FE87
:10085000801B0228C0D828688007F7D5286821693E
:1008600020F0F80040EAC10028600DE0C8F800A0C0
:10087000FFF710FE064604E0FFF70CFE801B02287F
:100880001FD828688007F7D42078000722D5824E29
:1008900083486169703671B101210160FFF7FAFD8B
:1008A000074604E0FFF7F6FDC01B022809D83068B0
:1008B0008007F7D50EE0C0F800A0FFF7EBFD074674
:1008C00005E082E0FFF7E6FDC01B02287DD8306816
:1008D0008007F7D42078400768D5DFF8BCB100273F
:1008E0000BF13C0BDBF80000C0000BD4DBF8001070
:1008F00041F08051CBF80010DBF80000012700F038
:1009000080500090674E3068C00510D4306840F4C5
:1009100080703060FFF7BEFD009005E0FFF7BAFD84
:100920000099401A022850D83068C005F6D55A4EB2
:10093000A0686C3601280FD00528306810D020F050
:1009400001003060306820F004003060A068B8B169
:10095000FFF7A0FD00900FE0306840F00100F4E7E1
:1009600040F004003060F7E7FFF794FD0099411A6A
:1009700041F28830814266D830688007F4D50EE0B5
:10098000FFF788FD009007E0FFF784FD0099411A0A
:1009900041F28830814256D830688007F4D42FB1B4
:1009A000DBF8001021F08051CBF80010A069C8B32B
:1009B0003949091D0968C1F3810102294AD0022879
:1009C000504607D0C8F8600000E03CE0FFF762FD49
:1009D00004463BE04746C8F86000FFF75BFD06466B
:1009E00005E000BFFFF756FD801B02282BD82868C2
:1009F0008001F7D4D4E907010843A16A2A4A4908CB
:100A000002EB0141626A41EA8211084394F82C101A
:100A100040EA0161C9F8001001203866FFF73AFD8D
:100A2000044606E036E000BFFFF734FD001B022855
:100A300009D828688001F7D52CE000BFFFF72AFD10
:100A4000001B022802D90320BDE8F88F2868800126
:100A5000F4D41FE00128F7D0D9F80000E26900F4CF
:100A60008001914214D1226A00F03F0191420FD1DE
:100A700047F6C071626A0140914209D1A26A00F44E
:100A80004031914204D1E16A00F07060884201D0A7
:100A90000120D9E70020D7E7043802400000474290
:100AA000800E4742007000400000FFFF10B5401E5E
:100AB000B0F1807F01D3012010BD4FF0E0246061D0
:100AC0000F21601700F0B1F80020A061072020611D
:100AD000002010BDFEE700002DE9F04387B014218F
:100AE0006846FFF7A5FB26480024016841F0100185
:100AF0000160016801F010010591016841F00101F8
:100B00000160016801F001010591016841F00801EF
:100B1000016000681B4F00F008004FF6FF7605905B
:100B2000002231463846FFF7AFFCDFF85C80002238
:100B300001214046FFF7A8FCDFF850900022314623
:100B40004846FFF7A1FC01250096CDE9015469460E
:100B500038460394FFF7BCFB0095CDE90154694684
:100B600040460394FFF7B4FB0096CDE90154694673
:100B700048460394FFF7ACFB07B0BDE8F0830000E4
:100B8000303802400010024000000240000C0240D9
:100B9000FEE7704770477047FFF782BC10B592B010
:100BA00030216846FFF744FB14210CA8FFF740FBF7
:100BB00014480024016841F080510160006800F091
:100BC000805011901048016841F480410160006834
:100BD000069400F4804011900220009001200390C0
:100BE000102004906846FFF7B3FD0F20CDE90C04F8
:100BF0008020CDE90E0400210CA81094FFF7DCFC46
:100C000012B010BD40380240007000400548016835
:100C100041F47001016003494FF0006080390860C1
:100C20007047000088ED00E0FEE70907090E002884
:100C300004DB00F1E02080F80014704700F00F00A2
:100C400000F1E02080F8141D704702E008C8121F70
:100C500008C1002AFAD170477047002001E001C1A5
:100C6000121F002AFBD1704710B500F003FA4FF4B1
:100C7000FA742046FFF71AFB00F068FE2046BDE834
:100C80001040FFF713BB10B500F0F4F94FF4FA74FD
:100C90002046FFF70BFB00F059FE2046FFF706FB4E
:100CA00000F0E8F92046FFF701FB00F04FFE204678
:100CB000BDE81040FFF7FABAFFF7FAFBFFF76EFF47
:100CC000FFF70AFF4FF47A74660040F2DC5500BF6C
:100CD000FFF7D9FF00F054FB00F038FE2046FFF785
:100CE000E5FA00F041FD3046FFF7E0FAFFF7CBFFF1
:100CF0002846FFF7DBFA00F00DF82846FFF7D6FA92
:100D0000FFF7B2FF2046FFF7D1FA00F06FFA00F0CC
:100D100057FCDDE72DE9F05FD34C01221146204658
:100D2000FFF7B2FB0122DFF84483D5032946404692
:100D3000FFF7AAFB4FF47A70FFF7B8FA00222946B2
:100D40004046FFF7A1FB002201212046FFF79CFB54
:100D5000012204212046FFF797FB4FF4005901229E
:100D600049464046FFF790FB4FF47A70FFF79EFA32
:100D7000002249464046FFF787FB00220421204617
:100D8000FFF782FB012210212046FFF77DFB4FF485
:100D9000006A012251464046FFF776FB4FF47A7015
:100DA000FFF784FA002251464046FFF76DFB002210
:100DB00010212046FFF768FB012240212046FFF763
:100DC00063FB012251024046FFF75EFB4FF47A704D
:100DD000FFF76CFA002261154046FFF755FB002231
:100DE00040212046FFF750FB4FF4807B01225946FB
:100DF0002046FFF749FB012280214046FFF744FBD4
:100E00004FF47A70FFF752FA002280214046FFF734
:100E10003BFB002259462046FFF736FB0122960293
:100E200031462046FFF730FB012220214046FFF7E4
:100E30002BFB4FF47A70FFF739FA0022202140464D
:100E4000FFF722FB002231462046FFF71DFB01225F
:100E500011032046FFF718FB012208214046FFF747
:100E600013FB4FF47A70FFF721FA00220821404665
:100E7000FFF70AFB0022A1142046FFF705FB012221
:100E8000970339462046FFF7FFFA01220221404628
:100E9000FFF7FAFA4FF47A70FFF708FA00220221FE
:100EA0004046FFF7F1FA002239462046FFF7ECFAF8
:100EB000012211464046FFF7E7FA01222946204663
:100EC000FFF7E2FA4FF47A70FFF7F0F900222946B3
:100ED0002046FFF7D9FA002201214046FFF7D4FA55
:100EE000012204214046FFF7CFFA0122494620465D
:100EF000FFF7CAFA4FF47A70FFF7D8F90022494693
:100F00002046FFF7C1FA002204214046FFF7BCFA51
:100F1000012210214046FFF7B7FA01225146204630
:100F2000FFF7B2FA4FF47A70FFF7C0F9002251468A
:100F30002046FFF7A9FA002210214046FFF7A4FA45
:100F4000012240214046FFF79FFA0122510220462C
:100F5000FFF79AFA4FF47A70FFF7A8F900226115AB
:100F60002046FFF791FA002240214046FFF78CFA15
:100F7000012259464046FFF787FA01228021204688
:100F8000FFF782FA4FF47A70FFF790F90022802180
:100F90002046FFF779FA002259464046FFF774FAD7
:100FA000012231464046FFF76FFA012220212046F8
:100FB000FFF76AFA4FF47A70FFF778F900222021E0
:100FC0002046FFF761FA002231464046FFF75CFAFF
:100FD000012211034046FFF757FA0122082120465B
:100FE000FFF752FA4FF47A70FFF760F900220821F8
:100FF0002046FFF749FA0022A1144046FFF744FAC1
:10100000012239464046FFF73FFA012202212046DD
:10101000FFF73AFA4FF47A70FFF748F900220221FD
:101020002046FFF731FA002239464046FFF72CFAF6
:101030000F4D012211462846FFF726FA01221146DC
:101040002046FFF721FA4FF47A70FFF72FF90022BC
:1010500001212046FFF718FA2846BDE8F05F00227C
:101060000121FFF711BA0000000C024000100240FD
:10107000000002402DE9F05F594C01221146204644
:10108000FFF702FA012202212046FFF7FDF90122B3
:1010900004212046FFF7F8F9012208212046FFF736
:1010A000F3F9012210212046FFF7EEF90122202159
:1010B0002046FFF7E9F9012240212046FFF7E4F935
:1010C000012280212046FFF7DFF90122150229467F
:1010D0002046FFF7D9F90122560231462046FFF794
:1010E000D3F90122970239462046FFF7CDF94FF494
:1010F0000068012241462046FFF7C6F94FF48059A7
:10110000012249462046FFF7BFF94FF4005A012259
:1011100051462046FFF7B8F94FF4804B012259465B
:101120002046FFF7B1F90122D1032046FFF7ACF9C1
:101130002C4C012211462046FFF7A6F9012202217C
:101140002046FFF7A1F9012204212046FFF79CF970
:10115000012208212046FFF797F90122102120469D
:10116000FFF792F9012220212046FFF78DF9012295
:1011700040212046FFF788F9012280212046FFF711
:1011800083F9012229462046FFF77EF901223146E4
:101190002046FFF779F9012239462046FFF774F916
:1011A000012241462046FFF76FF9012249462046B9
:1011B000FFF76AF9012251462046FFF765F901223F
:1011C00059462046FFF760F90122D1032046FFF778
:1011D0005BF9BDE8F05F012211460348FFF754B9FF
:1011E000000C024000100240000002402DE9F05FB8
:1011F000604C012211462046FFF746F901220221E8
:101200002046FFF741F9012204212046FFF73CF96F
:10121000012208212046FFF737F90122102120463C
:10122000FFF732F9012220212046FFF72DF9012294
:1012300040212046FFF728F9012280212046FFF7B0
:1012400023F9DFF834B1012202215846FFF71CF9D7
:10125000012204215846FFF717F9012208215846B8
:10126000FFF712F9012210215846FFF70DF901226C
:1012700020215846FFF708F9012240215846FFF780
:1012800003F9012280215846FFF7FEF801221502DA
:1012900029465846FFF7F8F80122560231465846CB
:1012A000FFF7F2F800F052FB4FF47A70FEF7FEFF02
:1012B000012229462046FFF7E7F801223146204661
:1012C000FFF7E2F80122950229462046FFF7DCF8F5
:1012D0004FF40068012241462046FFF7D5F84FF44D
:1012E0008059012249462046FFF7CEF84FF4005AB4
:1012F000012251462046FFF7C7F8012296033146E6
:101300002046FFF7C1F80122D70339462046FFF7F0
:10131000BBF8012211465846FFF7B6F801222946CC
:101320005846FFF7B1F8012241465846FFF7ACF89E
:10133000012249465846FFF7A7F801225146584670
:10134000FFF7A2F8012231465846FFF79DF8012227
:1013500039465846FFF798F8012211460748FFF72B
:1013600093F800F0F3FABDE8F05F4FF47A70FEF7FF
:101370009DBF0000000C024000100240000002402F
:101380002DE9F05F8B4C012211462046FFF77CF8D7
:101390006420FEF78BFF012202212046FFF774F83C
:1013A0006420FEF783FF012204212046FFF76CF83A
:1013B0006420FEF77BFF012208212046FFF764F836
:1013C0006420FEF773FF012210212046FFF75CF82E
:1013D0006420FEF76BFF012220212046FFF754F81E
:1013E0006420FEF763FF012240212046FFF74CF8FE
:1013F0006420FEF75BFF012280212046FFF744F8BE
:101400006420FEF753FF0122150229462046FFF70C
:101410003BF86420FEF74AFF01225602314620467F
:10142000FFF732F86420FEF741FF012297023946A8
:101430002046FFF729F86420FEF738FF4FF40068D4
:10144000012241462046FFF71FF86420FEF72EFFD9
:101450004FF48059012249462046FFF715F86420D1
:10146000FEF724FF4FF4005A012251462046FFF7B1
:101470000BF86420FEF71AFF4FF4804B0122594607
:101480002046FFF701F86420FEF710FF0122D10388
:101490002046FEF7F9FF6420FEF708FF464C0122C4
:1014A00011462046FEF7F0FF6420FEF7FFFE012202
:1014B00002212046FEF7E8FF6420FEF7F7FE012236
:1014C00004212046FEF7E0FF6420FEF7EFFE012234
:1014D00008212046FEF7D8FF6420FEF7E7FE012230
:1014E00010212046FEF7D0FF6420FEF7DFFE012228
:1014F00020212046FEF7C8FF6420FEF7D7FE012218
:1015000040212046FEF7C0FF6420FEF7CFFE0122F7
:1015100080212046FEF7B8FF6420FEF7C7FE0122B7
:1015200029462046FEF7B0FF6420FEF7BFFE0122E9
:1015300031462046FEF7A8FF6420FEF7B7FE0122E1
:1015400039462046FEF7A0FF6420FEF7AFFE0122D9
:1015500041462046FEF798FF6420FEF7A7FE0122D1
:1015600049462046FEF790FF6420FEF79FFE0122C9
:1015700051462046FEF788FF6420FEF797FE0122C1
:1015800059462046FEF780FF6420FEF78FFE0122B9
:10159000D1032046FEF778FF6420FEF787FE012284
:1015A00011460648FEF770FFBDE8F05F6420FEF7C5
:1015B0007DBE0000000C024000100240000002400E
:1015C0002DE9F05F654C012211462046FEF75CFFD5
:1015D000012202212046FEF757FF01220421204666
:1015E000FEF752FF012208212046FEF74DFF01229F
:1015F00010212046FEF748FF012220212046FEF759
:1016000043FF012240212046FEF73EFF01228021B8
:101610002046FEF739FF0122150229462046FEF733
:1016200033FF01224E4F960231463846FEF72CFF1B
:101630004FF40068012241463846FEF725FF4FF47B
:101640008059012249463846FEF71EFF4FF4005AE2
:10165000012251463846FEF717FF4FF4804B012216
:1016600059463846FEF710FF0122D1033846FEF7EF
:101670000BFF012211463B48FEF706FF00F066F91A
:101680004FF47A70FEF712FE012211462046FEF753
:10169000FBFE012251022046FEF7F6FE01223146F2
:1016A0002046FEF7F1FE012241462046FEF7ECFE01
:1016B000012249462046FEF7E7FE01225146204618
:1016C000FEF7E2FE012259462046FEF7DDFE01222A
:1016D000D1032046FEF7D8FE012211463846FEF718
:1016E000D3FE012202213846FEF7CEFE012204215C
:1016F0003846FEF7C9FE012208213846FEF7C4FE2F
:10170000012210213846FEF7BFFE01222021384673
:10171000FEF7BAFE012240213846FEF7B5FE01224F
:1017200080213846FEF7B0FE012229463846FEF7F2
:10173000ABFE012251023846FEF7A6FE00F006F984
:10174000C820FEF7B3FDFFF78FFA4FF49660FEF75F
:10175000ADFDBDE8F05FFFF749BD0000000C0240A1
:1017600000100240000002402DE9F047744C0122B5
:1017700011462046FEF788FE4FF47A7A5046FEF76F
:1017800095FD002201212046FEF77EFE0122042164
:101790002046FEF779FE5046FEF788FD0022042120
:1017A0002046FEF771FE012210212046FEF76CFE56
:1017B0005046FEF77BFD002210212046FEF764FE16
:1017C000012240212046FEF75FFE5046FEF76EFDE7
:1017D000002240212046FEF757FE0122150229462D
:1017E0002046FEF751FE5046FEF760FD00222946D6
:1017F0002046FEF749FE0122960231462046FEF7BA
:1018000043FE5046FEF752FD002231462046FEF7C9
:101810003BFE0122170339462046FEF735FE5046AF
:10182000FEF744FD002239462046FEF72DFE4FF418
:101830008048012241462046FEF726FE5046FEF72C
:1018400035FD002241462046FEF71EFEDFF8F490EB
:10185000012211464846FEF717FE5046FEF726FDC8
:10186000002201214846FEF70FFE012204214846CE
:10187000FEF70AFE5046FEF719FD002204214846F5
:10188000FEF702FE012210214846FEF7FDFD5046FC
:10189000FEF70CFD002210214846FEF7F5FD01225F
:1018A00040214846FEF7F0FD5046FEF7FFFC0022BF
:1018B00040214846FEF7E8FD012229464846FEF74A
:1018C000E3FD5046FEF7F2FC002229464846FEF7AB
:1018D000DBFD012231464846FEF7D6FD5046FEF7B5
:1018E000E5FC002231464846FEF7CEFD012239468E
:1018F0004846FEF7C9FD5046FEF7D8FC002239469F
:101900004846FEF7C1FD012241464846FEF7BCFDB0
:101910005046FEF7CBFC002241462046FEF7B4FDC0
:10192000094C012211462046FEF7AEFD5046FEF757
:10193000BDFC2046BDE8F04700220121FEF7A4BD12
:10194000000C024000100240000002402DE9F05F50
:10195000594C012211462046FEF796FD0022022135
:101960002046FEF791FD002204212046FEF78CFD63
:10197000002208212046FEF787FD00221021204684
:10198000FEF782FD002220212046FEF77DFD002289
:1019900040212046FEF778FD002280212046FEF7F8
:1019A00073FDA515002229462046FEF76DFD66153C
:1019B000002231462046FEF767FD271500223946F2
:1019C0002046FEF761FD4FF40068002241462046A4
:1019D000FEF75AFD4FF48059002249462046FEF793
:1019E00053FD4FF4005A002251462046FEF74CFDAD
:1019F0004FF4804B002259462046FEF745FD002259
:101A0000E9012046FEF740FD2C4C00220121204632
:101A1000FEF73AFD002202212046FEF735FD0022A6
:101A200004212046FEF730FD002208212046FEF763
:101A30002BFD002210212046FEF726FD002220214A
:101A40002046FEF721FD002240212046FEF71CFD26
:101A5000002280212046FEF717FD0022294620465D
:101A6000FEF712FD002231462046FEF70DFD002252
:101A700039462046FEF708FD002241462046FEF783
:101A800003FD002249462046FEF7FEFC0022514697
:101A90002046FEF7F9FC002259462046FEF7F4FCEA
:101AA0000022E9012046FEF7EFFCBDE8F05F0022CE
:101AB00001210348FEF7E8BC000C02400010024080
:101AC00000000240000000000000000001020304CA
:101AD00006070809F41A00080000002010000000A2
:101AE0004A0C0008041B000810000020000400003D
:101AF0005A0C000801000000100000000000000067
:041B00000024F400C9
:040000050800018965
:00000001FF
