:100000000C945D000C9485000C9485000C94850084
:100010000C9485000C9485000C9485000C9485004C
:100020000C9485000C9485000C9485000C9485003C
:100030000C9485000C9485000C9485000C9485002C
:100040000C9418010C9485000C9485000C94850088
:100050000C9485000C9485000C9485000C9485000C
:100060000C9485000C94850000000008000201003B
:100070000003040700000000000000000000000072
:10008000250028002B0000000000240027002A0083
:10009000040404040404040402020202020203032E
:1000A0000303030301020408102040800102040836
:1000B0001020010204081020350211241FBECFEFCA
:1000C000D8E0DEBFCDBF11E0A0E0B1E0E8EBF4E0A6
:1000D00002C005900D92A634B107D9F721E0A6E43D
:1000E000B1E001C01D92A136B207E1F710E0CDE505
:1000F000D0E004C02197FE010E945402CC35D10704
:10010000C9F70E9462010C945A020C94000090E01E
:10011000FC01EC55FF4F2491FC01E057FF4F849107
:10012000882399F090E0880F991FFC01EA57FF4F50
:10013000A591B491FC01E458FF4F859194918FB73C
:10014000F894EC91E22BEC938FBF089590E0FC01C2
:10015000E859FF4F2491FC01EC55FF4F3491FC010D
:10016000E057FF4FE491EE2309F43CC0222339F11C
:10017000233091F038F42130A9F0223001F584B514
:100180008F7D12C0273091F02830A1F02430B9F4CF
:10019000809180008F7D03C0809180008F77809355
:1001A00080000DC084B58F7784BD09C08091B000F8
:1001B0008F7703C08091B0008F7D8093B000F0E016
:1001C000EE0FFF1FE458FF4FA591B4919FB7F8942D
:1001D000611104C08C913095382302C0EC913E2B04
:1001E0003C939FBF08953FB7F89480915D01909133
:1001F0005E01A0915F01B091600126B5A89B05C08A
:100200002F3F19F00196A11DB11D3FBFBA2FA92F95
:10021000982F8827820F911DA11DB11DBC01CD0112
:1002200042E0660F771F881F991F4A95D1F70895FE
:100230001F920F920FB60F9211242F933F938F931B
:100240009F93AF93BF938091590190915A01A091D0
:100250005B01B0915C013091580123E0230F2D37F1
:1002600020F40196A11DB11D05C026E8230F0296BA
:10027000A11DB11D209358018093590190935A01FB
:10028000A0935B01B0935C0180915D0190915E0150
:10029000A0915F01B09160010196A11DB11D8093F5
:1002A0005D0190935E01A0935F01B0936001BF91E7
:1002B000AF919F918F913F912F910F900FBE0F9013
:1002C0001F901895789484B5826084BD84B5816050
:1002D00084BD85B5826085BD85B5816085BD809111
:1002E0006E00816080936E00109281008091810089
:1002F0008260809381008091810081608093810081
:10030000809180008160809380008091B100846042
:100310008093B1008091B00081608093B0008091A3
:100320007A00846080937A0080917A008260809362
:100330007A0080917A00816080937A0080917A00BF
:10034000806880937A001092C10082E00E9487004A
:1003500083E00E94870084E00E94870085E00E947D
:10036000870086E00E94870087E00E94870088E07F
:100370000E9487008DE00E9487008CE00E94870029
:1003800037E0332E40E0E42E40E0F42E1092570187
:100390001092560100915601109157010530110538
:1003A0000CF05CC061E08DE00E94A60060E08CE093
:1003B0000E94A6001092550110925401309E6001D7
:1003C000319ED00C1124C0915401D0915501C730F9
:1003D000D105B4F4F601EC0FFD1FEE0FFF1FE05046
:1003E000FF4FDE01AA0FBB1FAA5BBE4F60818C913D
:1003F0000E94A6002196D0935501C0935401E3CFEB
:100400000E94F3002B013C0184EF882E99249394E1
:10041000A12CB12C0E94F300DC01CB0184199509B9
:10042000A609B709883E9340A105B10598F321E0DC
:10043000821A9108A108B10888EE480E83E0581E80
:10044000611C711C81149104A104B10419F70F5FA0
:100450001F4F10935701009356019CCFE114F104F4
:1004600009F494CF0E94000091CFE6E4F1E082E02D
:1004700090E09183808383E090E09383828384E0A3
:1004800090E09583848385E090E09783868386E07F
:1004900090E09187808787E090E09387828788E06B
:1004A00090E0958784870895EE0FFF1F0590F491E3
:0804B000E02D0994F894FFCF40
:1004B800010001000100000000000100010001002E
:1004C800010001000000010001000000000001001F
:1004D800010001000100010001000000010001000D
:1004E80000000100010001000000010001000100FE
:0604F800010000000100FC
:00000001FF
