:100000000C9462000C948A000C948A000C948A0070
:100010000C948A000C948A000C948A000C948A0038
:100020000C948A000C948A000C948A000C948A0028
:100030000C948A000C948A000C948A000C948A0018
:100040000C9417020C948A000C948A000C948A0079
:100050000C948A000C948A000C948A000C948A00F8
:100060000C948A000C948A000000000023002600F3
:10007000290000000000240027002A0000000000E2
:10008000250028002B0004040404040404040202D4
:100090000202020203030303030301020408102007
:1000A0004080010204081020010204081020000012
:1000B0000008000201000003040700000000000027
:1000C00000003B0311241FBECFEFD8E0DEBFCDBF41
:1000D00011E0A0E0B1E0E0E2F8E002C005900D928E
:1000E000A232B107D9F721E0A2E2B1E001C01D922E
:1000F000A334B207E1F710E0C2E6D0E004C02197D4
:10010000FE010E940304C136D107C9F70E946102B3
:100110000C940E040C940000833081F028F481309C
:1001200099F08230A1F008958730A9F08830B9F0B5
:100130008430D1F4809180008F7D03C08091800055
:100140008F7780938000089584B58F7702C084B53F
:100150008F7D84BD08958091B0008F7703C080911A
:10016000B0008F7D8093B00008951F93CF93DF93ED
:10017000282F30E0F901E255FF4F8491F901E6564E
:10018000FF4FD491F901EA57FF4FC491CC23C1F03E
:10019000162F81110E948C00EC2FF0E0EE0FFF1F54
:1001A000E458FF4FA591B4919FB7F894111104C082
:1001B0008C91D095D82302C0EC91DE2BDC939FBFAD
:1001C000DF91CF911F910895CF93DF9390E0FC01D1
:1001D000E656FF4F2491FC01EA57FF4F8491882394
:1001E00061F190E0880F991FFC01EE58FF4FC59117
:1001F000D491FC01E458FF4FA591B491611109C05D
:100200009FB7F8948881209582238883EC912E23D0
:100210000BC0623061F49FB7F8948881322F30951B
:1002200083238883EC912E2B2C939FBF06C08FB71E
:10023000F894E8812E2B28838FBFDF91CF9108950A
:100240003FB7F8948091270190912801A09129014E
:10025000B0912A0126B5A89B05C02F3F19F0019641
:10026000A11DB11D3FBFBA2FA92F982F8827820F3C
:10027000911DA11DB11DBC01CD0142E0660F771F8C
:10028000881F991F4A95D1F70895CF92DF92EF9278
:10029000FF920F931F93CF93DF936C017A018B0131
:1002A000C0E0D0E0CE15DF0581F0D8016D918D0161
:1002B000D601ED91FC910190F081E02DC6010995E8
:1002C000892B11F02196EECF7E01C701DF91CF91EE
:1002D0001F910F91FF90EF90DF90CF900895CF93F3
:1002E000DF93EC0160E08E810E94B50061E08E81B9
:1002F0000E94B50060E08E810E94B5008BE891E01D
:100300000197F1F7DF91CF910895CF92DF92EF92AD
:10031000FF920F931F93CF93DF936C017C0187E0D3
:10032000E80EF11CC0E0D0E0062F10E0B8010C2E62
:1003300002C0759567950A94E2F76170F7018191A3
:100340007F010E94B5002196C430D10579F7C6011E
:10035000DF91CF911F910F91FF90EF90DF90CF90A1
:100360000C946F01CF92DF92EF92FF920F931F9345
:10037000CF93DF93EC01F62E642F8C810E94B500A1
:100380008D818F3F19F060E00E94B5008F850F2DA1
:1003900010E084FF25C06E0187E0C80ED11CE12C5F
:1003A000F12CB8010E2C02C0759567950A94E2F7FE
:1003B0006170F60181916F010E94B500FFEFEF1AA5
:1003C000FF0A88E0E816F10461F7CE01DF91CF91D2
:1003D0001F910F91FF90EF90DF90CF900C946F01E1
:1003E000B80184E0759567958A95E1F7CE010E9482
:1003F00085016F2DCE01DF91CF911F910F91FF905D
:10040000EF90DF90CF900C94850140E0682F8BE255
:1004100091E00C94B20141E00E94B20181E090E0D1
:100420000895089580E090E008950E9409041F92C5
:100430000F920FB60F9211242F933F938F939F9398
:10044000AF93BF938091230190912401A091250146
:10045000B09126013091220123E0230F2D3720F4A3
:100460000196A11DB11D05C026E8230F0296A11D0E
:10047000B11D209322018093230190932401A09326
:100480002501B09326018091270190912801A09128
:100490002901B0912A010196A11DB11D8093270168
:1004A00090932801A0932901B0932A01BF91AF91A5
:1004B0009F918F913F912F910F900FBE0F901F90A2
:1004C0001895789484B5826084BD84B5816084BDBC
:1004D00085B5826085BD85B5816085BD80916E00E2
:1004E000816080936E001092810080918100826013
:1004F0008093810080918100816080938100809150
:1005000080008160809380008091B100846080933E
:10051000B1008091B00081608093B00080917A003A
:10052000846080937A0080917A00826080937A0060
:1005300080917A00816080937A0080917A0080684F
:1005400080937A001092C10060E089E00E94E4008C
:1005500027EB222E20E0322E33EA832E30E0932E3A
:10056000CFE8D0E00BE31FE140E0A42E40E0B42E42
:10057000F1018491F401F490FE01E490EE2051F138
:1005800081110E948C00EE2DF0E0EE0FFF1FE85964
:10059000FF4FA591B4918C91F822E1F0E1E08091B8
:1005A0003E018111E0E0E195F0E0E55DFE4F8489D8
:1005B00080680E9405024BE050E06CE071E08BE245
:1005C00091E00E94450161E08AE00E94B50060E090
:1005D00088E01BC0E1E080913E018111E0E0E195FF
:1005E000F0E0E55DFE4F848980680E94050249E0E5
:1005F00050E068E171E08BE291E00E94450161E02A
:1006000088E00E94B50060E08AE00E94B5000E9488
:1006100020016B017C0184EF482E55245394612CFA
:10062000712C0E942001DC01CB018C199D09AE09BF
:10063000BF09883E9340A105B10598F3F1E04F1A38
:1006400051086108710828EEC20E23E0D21EE11C99
:10065000F11C411451046104710419F781E00E94F6
:100660000502C8010197F1F7A114B10409F480CF84
:100670000E9400007DCFCF93DF9310922E01109245
:100680002D0184E091E090932C0180932B018CE06C
:1006900080932F018FEF809330018BE080933101A5
:1006A00085E08093320184E08093330183E080937E
:1006B000340182E0809335011092360110923701A7
:1006C000109238011092390110923A0181E0809322
:1006D0003E0110923F0180E48093400180E18093CD
:1006E000410180E58093420161E08CE00E94E400DA
:1006F000809130018F3F19F061E00E94E40061E0D9
:10070000809131010E94E400CBE2D1E09E012B52A6
:10071000314080913A0184FD03C084E090E002C042
:1007200088E090E02196281739072CF461E08E814B
:100730000E94E400EBCF8BE39DE00197F1F760E0CE
:1007400080912F010E94B50060E0809131010E94EC
:10075000B500809130018F3F19F060E00E94B50034
:1007600080913A0184FD20C063E08BE291E00E9419
:100770008501CBE4D6E4CE010197F1F763E08BE28B
:1007800091E00E9485012197F1F763E08BE291E00F
:100790000E94850183E592E00197F1F762E08BE228
:1007A00091E00E94850115C080620E9405028BE4E1
:1007B00096E40197F1F780913A0180620E94050268
:1007C00083E592E00197F1F780913A0180620E94FF
:1007D000050280913A0180620E94050284E08093C4
:1007E0003B018CE00E94050281E00E9405028BE340
:1007F0009FE10197F1F782E080933C0186E0DF9171
:10080000CF910C940502EE0FFF1F0590F491E02D9F
:10081000099481E090E0F8940C940E04F894FFCFD2
:10082000000000000B024501120211022047415353
:1008300020524F205249200020414E20544F414E1B
:02084000200096
:107E0000112484B714BE81FFF0D085E080938100F7
:107E100082E08093C00088E18093C10086E0809377
:107E2000C20080E18093C4008EE0C9D0259A86E02C
:107E300020E33CEF91E0309385002093840096BBD3
:107E4000B09BFECF1D9AA8958150A9F7CC24DD24C4
:107E500088248394B5E0AB2EA1E19A2EF3E0BF2EE7
:107E6000A2D0813461F49FD0082FAFD0023811F036
:107E7000013811F484E001C083E08DD089C08234E0
:107E800011F484E103C0853419F485E0A6D080C0E4
:107E9000853579F488D0E82EFF2485D0082F10E0AE
:107EA000102F00270E291F29000F111F8ED06801E7
:107EB0006FC0863521F484E090D080E0DECF843638
:107EC00009F040C070D06FD0082F6DD080E0C81688
:107ED00080E7D80618F4F601B7BEE895C0E0D1E017
:107EE00062D089930C17E1F7F0E0CF16F0E7DF06D8
:107EF00018F0F601B7BEE89568D007B600FCFDCFD4
:107F0000A601A0E0B1E02C9130E011968C91119780
:107F100090E0982F8827822B932B1296FA010C0160
:107F200087BEE89511244E5F5F4FF1E0A038BF0790
:107F300051F7F601A7BEE89507B600FCFDCF97BE46
:107F4000E89526C08437B1F42ED02DD0F82E2BD052
:107F50003CD0F601EF2C8F010F5F1F4F84911BD097
:107F6000EA94F801C1F70894C11CD11CFA94CF0C13
:107F7000D11C0EC0853739F428D08EE10CD085E9AC
:107F80000AD08FE07ACF813511F488E018D01DD067
:107F900080E101D065CF982F8091C00085FFFCCF94
:107FA0009093C60008958091C00087FFFCCF809118
:107FB000C00084FD01C0A8958091C6000895E0E648
:107FC000F0E098E1908380830895EDDF803219F02E
:107FD00088E0F5DFFFCF84E1DECF1F93182FE3DFCA
:107FE0001150E9F7F2DF1F91089580E0E8DFEE27F6
:047FF000FF270994CA
:027FFE00040479
:0400000300007E007B
:00000001FF
