:100000000C9462000C948A000C948A000C948A0070
:100010000C948A000C948A000C948A000C948A0038
:100020000C948A000C948A000C948A000C948A0028
:100030000C948A000C948A000C948A000C948A0018
:100040000C941E030C948A000C948A000C948A0071
:100050000C948A000C948A000C948A000C948A00F8
:100060000C948A000C948A000000000023002600F3
:10007000290000000000240027002A0000000000E2
:10008000250028002B0004040404040404040202D4
:100090000202020203030303030301020408102007
:1000A0004080010204081020010204081020000012
:1000B0000008000201000003040700000000000027
:1000C00000001E0411241FBECFEFD8E0DEBFCDBF5D
:1000D00011E0A0E0B1E0E2E9F8E002C005900D9285
:1000E000AE31B107D9F721E0AEE1B1E001C01D9218
:1000F000AF33B207E1F710E0C2E6D0E004C02197C9
:10010000FE010E943C04C136D107C9F70E94680372
:100110000C9447040C940000833081F028F4813063
:1001200099F08230A1F008958730A9F08830B9F0B5
:100130008430D1F4809180008F7D03C08091800055
:100140008F7780938000089584B58F7702C084B53F
:100150008F7D84BD08958091B0008F7703C080911A
:10016000B0008F7D8093B00008951F93CF93DF93ED
:10017000282F30E0F901E255FF4F8491F901E6564E
:10018000FF4FD491F901EA57FF4FC491CC23C1F03E
:10019000162F81110E948C00EC2FF0E0EE0FFF1F54
:1001A000E458FF4FA591B4919FB7F894111104C082
:1001B0008C91D095D82302C0EC91DE2BDC939FBFAD
:1001C000DF91CF911F910895CF93DF9390E0FC01D1
:1001D000E656FF4F2491FC01EA57FF4F8491882394
:1001E00061F190E0880F991FFC01EE58FF4FC59117
:1001F000D491FC01E458FF4FA591B491611109C05D
:100200009FB7F8948881209582238883EC912E23D0
:100210000BC0623061F49FB7F8948881322F30951B
:1002200083238883EC912E2B2C939FBF06C08FB71E
:10023000F894E8812E2B28838FBFDF91CF9108950A
:100240003FB7F8948091230190912401A09125015A
:10025000B091260126B5A89B05C02F3F19F0019645
:10026000A11DB11D3FBFBA2FA92F982F8827820F3C
:10027000911DA11DB11DBC01CD0142E0660F771F8C
:10028000881F991F4A95D1F708958F929F92AF9238
:10029000BF92CF92DF92EF92FF926B017C010E949E
:1002A00020014B015C01C114D104E104F104F1F01F
:1002B0000E942001DC01CB0188199909AA09BB0918
:1002C000883E9340A105B10570F321E0C21AD10820
:1002D000E108F10888EE880E83E0981EA11CB11C8D
:1002E000C114D104E104F10419F7DDCFFF90EF90C0
:1002F000DF90CF90BF90AF909F908F900895CF9256
:10030000DF92EF92FF920F931F93CF93DF936C01D5
:100310007A018B01C0E0D0E0CE15DF0581F0D80175
:100320006D918D01D601ED91FC910190F081E02D50
:10033000C6010995892B11F02196EECF7E01C701E8
:10034000DF91CF911F910F91FF90EF90DF90CF90B1
:100350000895CF93DF93EC0160E08E810E94B50099
:1003600061E08E810E94B50060E08E810E94B50040
:100370008BE891E00197F1F7DF91CF910895CF924B
:10038000DF92EF92FF920F931F93CF93DF936C0155
:100390007C0187E0E80EF11CC0E0D0E0062F10E001
:1003A000B8010C2E02C0759567950A94E2F761704A
:1003B000F70181917F010E94B5002196C430D105DB
:1003C00079F7C601DF91CF911F910F91FF90EF90C8
:1003D000DF90CF900C94A901CF92DF92EF92FF9221
:1003E0000F931F93CF93DF93EC01F62E642F8C8134
:1003F0000E94B5008D818F3F19F060E00E94B5002A
:100400008F850F2D10E084FF25C06E0187E0C80E98
:10041000D11CE12CF12CB8010E2C02C0759567950A
:100420000A94E2F76170F60181916F010E94B500B4
:10043000FFEFEF1AFF0A88E0E816F10461F7CE013A
:10044000DF91CF911F910F91FF90EF90DF90CF90B0
:100450000C94A901B80184E0759567958A95E1F738
:10046000CE010E94BF016F2DCE01DF91CF911F9170
:100470000F91FF90EF90DF90CF900C94BF0140E080
:10048000682F87E291E00C94EC0181E00E943F022A
:100490008BE39FE10197F1F70895CF93DF938230CB
:1004A00028F09091360198609093360180933A013C
:1004B00010923B0180E480933C0180E180933D01F8
:1004C00080E580933E0161E080912B010E94E40071
:1004D00080912C018F3F19F061E00E94E40061E0FF
:1004E00080912D010E94E400C7E2D1E09E012752D5
:1004F00031408091360184FD03C084E090E002C069
:1005000088E090E02196281739072CF461E08E816D
:100510000E94E400EBCF8BE39DE00197F1F760E0F0
:1005200080912B010E94B50060E080912D010E9416
:10053000B50080912C018F3F19F060E00E94B5005A
:100540008091360184FD20C063E087E291E00E9443
:10055000BF01CBE4D6E4CE010197F1F763E087E277
:1005600091E00E94BF012197F1F763E087E291E0FB
:100570000E94BF0183E592E00197F1F762E087E214
:1005800091E00E94BF0115C080620E943F028BE48F
:1005900096E40197F1F78091360180620E943F0254
:1005A00083E592E00197F1F78091360180620E9425
:1005B0003F028091360180620E943F0284E0809376
:1005C00037018CE00E943F020E94450282E0809346
:1005D000380186E0DF91CF910C943F02643008F03F
:1005E00063E090913A01691710F06FEF690FE62F01
:1005F000F0E0E95DFE4F9489890F80680C943F021A
:1006000041E00E94EC0181E090E00895089580E0CF
:1006100090E00895009769F0FC0101900020E9F74F
:100620003197AF01481B590BBC0187E291E00C9454
:100630007F0180E090E008950E9442041F920F9293
:100640000FB60F9211242F933F938F939F93AF93E5
:10065000BF9380911F0190912001A0912101B09141
:10066000220130911E0123E0230F2D3720F4019643
:10067000A11DB11D05C026E8230F0296A11DB11DC5
:1006800020931E0180931F0190932001A0932101CC
:10069000B09322018091230190912401A091250122
:1006A000B09126010196A11DB11D80932301909365
:1006B0002401A0932501B0932601BF91AF919F9192
:1006C0008F913F912F910F900FBE0F901F90189513
:1006D000789484B5826084BD84B5816084BD85B51D
:1006E000826085BD85B5816085BD80916E00816029
:1006F00080936E00109281008091810082608093CF
:1007000081008091810081608093810080918000D0
:100710008160809380008091B10084608093B100FB
:100720008091B00081608093B00080917A008460F5
:1007300080937A0080917A00826080937A00809121
:100740007A00816080937A0080917A00806880933B
:100750007A001092C10082E00E944D0262E08EE0B9
:100760000E94E40061E081E00E94E400CCEBD0E074
:1007700008EA10E094E9E92E90E0F92E20E0C22E7C
:1007800020E0D22EFE018491F801A490F701B490EC
:10079000BB20B9F181110E948C00EB2DF0E0EE0F2F
:1007A000FF1FE859FF4FA591B4918C918A2149F11F
:1007B00061E081E00E94B50060E085E00E94EE0209
:1007C0008CE091E00E940A0361E083E00E94EE0267
:1007D00080E191E00E940A0368EC70E080E090E024
:1007E0000E9445010E94450268EC70E080E090E0C4
:1007F0000E944501C114D10409F4C4CF0E94000035
:10080000C1CF60E081E00E94B50060E085E00E9419
:10081000EE0285E191E00E940A0361E083E00E941C
:10082000EE0288E191E00E940A0368EE73E080E046
:1008300090E00E9445010E944502DCCFE7E2F1E032
:100840001382128284E091E09183808387E0848325
:100850008FEF858386E0868385E0878384E08087C9
:1008600083E0818782E08287138614861586168648
:10087000178681E00C944D02EE0FFF1F0590F49156
:10088000E02D099481E090E0F8940C944704F894EA
:02089000FFCF98
:100892000000000000037F01070306034C7561009E
:0E08A2004368617900416E00546F616E000082
:107E0000112484B714BE81FFF0D085E080938100F7
:107E100082E08093C00088E18093C10086E0809377
:107E2000C20080E18093C4008EE0C9D0259A86E02C
:107E300020E33CEF91E0309385002093840096BBD3
:107E4000B09BFECF1D9AA8958150A9F7CC24DD24C4
:107E500088248394B5E0AB2EA1E19A2EF3E0BF2EE7
:107E6000A2D0813461F49FD0082FAFD0023811F036
:107E7000013811F484E001C083E08DD089C08234E0
:107E800011F484E103C0853419F485E0A6D080C0E4
:107E9000853579F488D0E82EFF2485D0082F10E0AE
:107EA000102F00270E291F29000F111F8ED06801E7
:107EB0006FC0863521F484E090D080E0DECF843638
:107EC00009F040C070D06FD0082F6DD080E0C81688
:107ED00080E7D80618F4F601B7BEE895C0E0D1E017
:107EE00062D089930C17E1F7F0E0CF16F0E7DF06D8
:107EF00018F0F601B7BEE89568D007B600FCFDCFD4
:107F0000A601A0E0B1E02C9130E011968C91119780
:107F100090E0982F8827822B932B1296FA010C0160
:107F200087BEE89511244E5F5F4FF1E0A038BF0790
:107F300051F7F601A7BEE89507B600FCFDCF97BE46
:107F4000E89526C08437B1F42ED02DD0F82E2BD052
:107F50003CD0F601EF2C8F010F5F1F4F84911BD097
:107F6000EA94F801C1F70894C11CD11CFA94CF0C13
:107F7000D11C0EC0853739F428D08EE10CD085E9AC
:107F80000AD08FE07ACF813511F488E018D01DD067
:107F900080E101D065CF982F8091C00085FFFCCF94
:107FA0009093C60008958091C00087FFFCCF809118
:107FB000C00084FD01C0A8958091C6000895E0E648
:107FC000F0E098E1908380830895EDDF803219F02E
:107FD00088E0F5DFFFCF84E1DECF1F93182FE3DFCA
:107FE0001150E9F7F2DF1F91089580E0E8DFEE27F6
:047FF000FF270994CA
:027FFE00040479
:0400000300007E007B
:00000001FF
