:100000000C945D000C9485000C9485000C94850084
:100010000C9485000C9485000C9485000C9485004C
:100020000C9485000C9485000C9485000C9485003C
:100030000C9485000C9485000C9485000C9485002C
:100040000C944F010C9485000C9485000C94850051
:100050000C9485000C9485000C9485000C9485000C
:100060000C9485000C94850000000008000201003B
:100070000003040700000000000000000000000072
:10008000250028002B0000000000240027002A0083
:10009000040404040404040402020202020203032E
:1000A0000303030301020408102040800102040836
:1000B0001020010204081020910211241FBECFEF6E
:1000C000D8E0DEBFCDBF11E0A0E0B1E0E0E7F5E0B1
:1000D00002C005900D92AC38B107D9F721E0ACE829
:1000E000B1E001C01D92A93AB207E1F710E0CDE5F9
:1000F000D0E004C02197FE010E94B002CC35D107A8
:10010000C9F70E9499010C94B6020C94000090E08B
:10011000FC01EC55FF4F2491FC01E057FF4F849107
:10012000882399F090E0880F991FFC01EA57FF4F50
:10013000A591B491FC01E458FF4F859194918FB73C
:10014000F894EC91E22BEC938FBF089590E0FC01C2
:10015000E859FF4F2491FC01EC55FF4F3491FC010D
:10016000E057FF4FE491EE2309F43CC0222339F11C
:10017000233091F038F42130A9F0223001F584B514
:100180008F7D12C0273091F02830A1F02430B9F4CF
:10019000809180008F7D03C0809180008F77809355
:1001A00080000DC084B58F7784BD09C08091B000F8
:1001B0008F7703C08091B0008F7D8093B000F0E016
:1001C000EE0FFF1FE458FF4FA591B4919FB7F8942D
:1001D000611104C08C913095382302C0EC913E2B04
:1001E0003C939FBF08953FB7F8948091A5019091EB
:1001F000A601A091A701B091A80126B5A89B05C0B2
:100200002F3F19F00196A11DB11D3FBFBA2FA92F95
:10021000982F8827820F911DA11DB11DBC01CD0112
:1002200042E0660F771F881F991F4A95D1F70895FE
:100230008F929F92AF92BF92CF92DF92EF92FF92F6
:100240000E94F3004B015C0184E6C82ED12CE12C06
:10025000F12C0E94F300DC01CB0188199909AA094D
:10026000BB09883E9340A105B10598F321E0C21A6D
:10027000D108E108F10888EE880E83E0981EA11CE1
:10028000B11CC114D104E104F10419F7FF90EF90FF
:10029000DF90CF90BF90AF909F908F9008951F9266
:1002A0000F920FB60F9211242F933F938F939F932A
:1002B000AF93BF938091A1019091A201A091A3015E
:1002C000B091A4013091A00123E0230F2D3720F439
:1002D0000196A11DB11D05C026E8230F0296A11DA0
:1002E000B11D2093A0018093A1019093A201A0933E
:1002F000A301B093A4018091A5019091A601A091C2
:10030000A701B091A8010196A11DB11D8093A5017F
:100310009093A601A093A701B093A801BF91AF91BC
:100320009F918F913F912F910F900FBE0F901F9033
:100330001895789484B5826084BD84B5816084BD4D
:1003400085B5826085BD85B5816085BD80916E0073
:10035000816080936E0010928100809181008260A4
:1003600080938100809181008160809381008091E1
:1003700080008160809380008091B10084608093D0
:10038000B1008091B00081608093B00080917A00CC
:10039000846080937A0080917A00826080937A00F2
:1003A00080917A00816080937A0080917A008068E1
:1003B00080937A001092C10082E00E94870083E05F
:1003C0000E94870084E00E94870085E00E948700E9
:1003D00086E00E94870087E00E94870088E00E94F4
:1003E00087008DE00E9487008CE00E94870047E034
:1003F000D42E00E010E010929F0110929E01C09157
:100400009E01D0919F01CA30D1050CF083C060E0FD
:100410008DE00E94A60061E08CE00E94A600109290
:100420009D0110929C01E0909C01F0909D0187E05D
:10043000E816F10404F580919A0190919B01D89EF1
:10044000F001D99EF00D1124EE0DFF1DEE0FFF1FE0
:10045000E050FF4FD701AA0FBB1FA457BE4F6081CA
:100460008C910E94A6008FEFE81AF80AF0929D0185
:10047000E0929C01D8CF0E94180161E08DE00E94BB
:10048000A60060E08CE00E94A60010929D011092F0
:100490009C01DC9E5001DD9EB00C1124E0909C017B
:1004A000F0909D0187E0E816F104C4F4F501EE0D2B
:1004B000FF1DEE0FFF1FE050FF4FD701AA0FBB1F1C
:1004C000A457BE4F60818C910E94A6008FEFE81A5E
:1004D000F80AF0929D01E0929C01E0CF0E94180181
:1004E000C930D10589F480919A0190919B010196C0
:1004F0008A3091052CF490939B0180939A0104C05B
:1005000010929B0110929A012196D0939F01C09363
:100510009E0175CF0115110509F46DCF0E940000F1
:100520006ACFECE8F1E082E090E09183808383E0A1
:1005300090E09383828384E090E09583848385E0D8
:1005400090E09783868386E090E09187808787E0BC
:1005500090E09387828788E090E09587848708956C
:10056000EE0FFF1F0590F491E02D0994F894FFCF52
:100570000000010001000100010001000100000075
:100580000000000000000100010000000100000068
:100590000100010000000100010001000000000056
:1005A0000100010001000100010001000000000045
:1005B0000100010000000100010000000100010035
:1005C0000000010001000100010001000100000025
:1005D0000100000000000000000001000100010017
:1005E0000100010001000100010001000100010003
:0C05F000010000000100010001000100FA
:00000001FF
