:100000000C945D000C9485000C9485000C94850084
:100010000C9485000C9485000C9485000C9485004C
:100020000C9485000C9485000C9485000C9485003C
:100030000C9485000C9485000C9485000C9485002C
:100040000C9499020C9485000C9467020C94410264
:100050000C9485000C9485000C9485000C9485000C
:100060000C9485000C94850000000008000201003B
:100070000003040700000000000000000000000072
:10008000250028002B0000000000240027002A0083
:10009000040404040404040402020202020203032E
:1000A0000303030301020408102040800102040836
:1000B0001020010204081020BF0311241FBECFEF3F
:1000C000D8E0DEBFCDBF12E0A0E0B1E0E8EEF7E09F
:1000D00002C005900D92AA33B107D9F722E0AAE336
:1000E000B2E001C01D92A03EB207E1F710E0CDE5FD
:1000F000D0E004C02197FE010E94EC03CC35D1076B
:10010000C9F70E94E3020C94F2030C94000090E003
:10011000FC01EC55FF4F249180579F4FFC018491C7
:10012000882399F090E0880F991FFC01EA57FF4F50
:10013000A591B491FC01E458FF4F859194918FB73C
:10014000F894EC91E22BEC938FBF0895AF92BF929D
:10015000CF92DF92EF92FF920F931F93CF93DF9393
:100160006C017B018B01040F151FEB015E01AE18C2
:10017000BF08C017D10759F06991D601ED91FC91E4
:100180000190F081E02DC6010995892B79F7C50111
:10019000DF91CF911F910F91FF90EF90DF90CF9063
:1001A000BF90AF900895FC01538D448D252F30E012
:1001B000842F90E0821B930B541710F0CF96089574
:1001C00001970895FC01918D828D981761F0A28DA1
:1001D000AE0FBF2FB11D5D968C91928D9F5F9F7367
:1001E000928F90E008958FEF9FEF0895FC01918D1D
:1001F000828D981731F0828DE80FF11D858D90E08A
:1002000008958FEF9FEF0895FC01918D228D892F26
:1002100090E0805C9F4F821B91098F73992708950E
:1002200083E492E00E94040121E0892B09F420E09C
:10023000822F089580E090E0892B29F00E94100120
:1002400081110C9400000895FC01A48DA80FB92F12
:10025000B11DA35ABF4F2C91848D90E001968F73EE
:100260009927848FA689B7892C93A089B1898C910D
:10027000837080648C93938D848D981306C002885C
:10028000F389E02D80818F7D80830895EF92FF9226
:100290000F931F93CF93DF93EC0181E0888F9B8DA9
:1002A0008C8D98131AC0E889F989808185FF15C063
:1002B0009FB7F894EE89FF896083E889F989808186
:1002C0008370806480839FBF81E090E0DF91CF9155
:1002D0001F910F91FF90EF900895F62E0B8D10E077
:1002E0000F5F1F4F0F731127E02E8C8D8E110CC0E6
:1002F0000FB607FCFACFE889F989808185FFF5CF31
:10030000CE010E942401F1CFEB8DEC0FFD2FF11DEA
:10031000E35AFF4FF0829FB7F8940B8FEA89FB896D
:1003200080818062CFCFCF93DF93EC01888D8823CB
:10033000B9F0AA89BB89E889F9898C9185FD03C048
:10034000808186FD0DC00FB607FCF7CF8C9185FF2D
:10035000F2CF808185FFEDCFCE010E942401E9CF4D
:10036000DF91CF91089590E0FC01E859FF4F24916F
:10037000FC01EC55FF4F3491FC01E057FF4FE49135
:10038000EE23C9F0222339F0233001F1A8F4213003
:1003900019F1223029F1F0E0EE0FFF1FE458FF4F72
:1003A000A591B4918FB7F894EC91611126C0309566
:1003B0003E233C938FBF08952730A9F02830C9F021
:1003C000243049F7809180008F7D03C080918000A8
:1003D0008F7780938000DFCF84B58F7784BDDBCFAC
:1003E00084B58F7DFBCF8091B0008F778093B00074
:1003F000D2CF8091B0008F7DF9CF3E2BDACF3FB7BF
:10040000F89480913F0290914002A0914102B091F6
:10041000420226B5A89B05C02F3F19F00196A11DE9
:10042000B11D3FBFBA2FA92F982F8827BC01CD013E
:10043000620F711D811D911D42E0660F771F881F9D
:10044000991F4A95D1F708950F931F93CF93DF9388
:10045000082F162FD42FC8E06D2F6170802F0E94B7
:10046000B301D69561E0812F0E94B30160E0812F36
:100470000E94B301C15081F7DF91CF911F910F917D
:1004800008951F920F920FB60F9211242F933F934E
:100490004F935F936F937F938F939F93AF93BF938C
:1004A000EF93FF9383E492E00E942401FF91EF9188
:1004B000BF91AF919F918F917F916F915F914F917C
:1004C0003F912F910F900FBE0F901F9018951F9284
:1004D0000F920FB60F9211242F938F939F93EF9348
:1004E000FF93E0915302F09154028081E091590210
:1004F000F0915A0282FD1BC0908180915C028F5F57
:100500008F7320915D02821741F0E0915C02F0E070
:10051000ED5BFD4F958F80935C02FF91EF919F9172
:100520008F912F910F900FBE0F901F901895808183
:10053000F4CF1F920F920FB60F9211242F933F9377
:100540008F939F93AF93BF9380913B0290913C0216
:10055000A0913D02B0913E0230913A0223E0230F78
:100560002D3758F50196A11DB11D20933A028093B5
:100570003B0290933C02A0933D02B0933E028091D7
:100580003F0290914002A0914102B0914202019637
:10059000A11DB11D80933F0290934002A0934102A0
:1005A000B0934202BF91AF919F918F913F912F9154
:1005B0000F900FBE0F901F90189526E8230F0296FC
:1005C000A11DB11DD2CF789484B5826084BD84B55D
:1005D000816084BD85B5826085BD85B5816085BD3E
:1005E00080916E00816080936E00109281008091F6
:1005F000810082608093810080918100816080937E
:100600008100809180008160809380008091B100A2
:1006100084608093B1008091B00081608093B000CD
:1006200080917A00846080937A0080917A00826061
:1006300080937A0080917A00816080937A00809123
:100640007A00806880937A001092C100E091530292
:10065000F091540282E08083E0914F02F0915002C9
:100660001082E0915102F09152028FEC808310923F
:100670005B02E0915702F091580286E08083E0919E
:100680005502F0915602808180618083E09155028D
:10069000F0915602808188608083E0915502F0914C
:1006A0005602808180688083E0915502F091560265
:1006B00080818F7D808384E00E94870083E00E9498
:1006C000870085E00E94870086E00E94870082E024
:1006D0000E9487009AE3492E92E0592E20E8622E6C
:1006E000712C30E0C32E30E0D32E02E111E082E322
:1006F000E82EF12CD0E0C0E060E084E00E94B3017D
:10070000F801EC0FFD1F408165E083E00E942402A8
:10071000A3010C2E02C0559547950A94E2F766E0B6
:1007200082E00E94240261E084E00E94B3010E9402
:10073000FF014B015C010E94FF01681979098A09D8
:100740009B09683E734081059105A8F32196C83046
:10075000D10591F681E0E81AF10861F6085F1F4FB4
:100760004016510621F6C114D10409F4BECF0E94EF
:100770001001882309F4B9CF0E940000B6CFE3E44A
:10078000F2E01382128288EE93E0A0E0B0E084836E
:100790009583A683B78384E091E09183808385EC81
:1007A00090E09587848784EC90E09787868780EC3B
:1007B00090E0918B808B81EC90E0938B828B82EC2C
:1007C00090E0958B848B86EC90E0978B868B118ED6
:1007D000128E138E148E0895EE0FFF1F0590F49164
:0807E000E02D0994F894FFCF0D
:1007E800000000004601A600D30093010401E200C6
:1007F800F600FFC080B7B780C0FFFF8080B6B68024
:10080800C9FFFFC180BEBE9CDDFFFF8080BEBE80E9
:10081800C1FFFF8080B6B6BEBEFFFF8080B7B7BFFE
:10082800BFFFFFC180BEBA98D9FFFF8080F7F7806D
:1008380080FFFFFFBE8080BEFFFFFFF9F8BE80810A
:10084800BFFFFF8080E3C99CBEFFFF8080FEFEFEE5
:10085800FEFFFF8080CFE7CF8080FF8080CFE7F367
:100868008080FFC180BEBE80C1FFFF8080BBBB838C
:10087800C7FFFFC381BDBD80C2FFFF8080B3B184C5
:10088800CEFFFFCD84B6B690D9FFFF9FBF8080BF53
:100898009FFFFF8180FEFE8080FFFF8381FCFC813B
:1008A80083FFFF8080F9F3F98080FF9C88E3F7E3FA
:1008B800889CFF8F87F0F0878FFFFFBCB8B2A68EA9
:1008C8009EFFFFFEEE8080FEFEFFFFDC98BAB68634
:1008D800CEFFFFDD9CB6B680C9FFFFF3EBDB80805F
:1008E800FBFFFF8D8CAEAEA0B1FFFFC180B6B69006
:1008F800D9FFFF9F9FB8A0879FFFFFC980B6B6802A
:10090800C9FFFFCD84B6B680C1FFFFC180AEB680F7
:0A091800C1FFFFFFFFFFFFFFFFFF1D
:00000001FF
