:100000000C9462000C948A000C948A000C948A0070
:100010000C948A000C948A000C948A000C948A0038
:100020000C948A000C948A000C948A000C948A0028
:100030000C948A000C948A000C948A000C948A0018
:100040000C9484030C948A000C948A000C948A000B
:100050000C948A000C948A000C948A000C948A00F8
:100060000C948A000C948A000000000024002700F1
:100070002A0000000000250028002B0000000000DE
:1000800023002600290004040404040404040202DA
:100090000202020203030303030301020408102007
:1000A0004080010204081020010204081020000012
:1000B0000008000201000003040700000000000027
:1000C0000000C80511241FBECFEFD8E0DEBFCDBFB2
:1000D00011E0A0E0B1E0EEE8FCE002C005900D9276
:1000E000AC35B107D9F721E0ACE5B1E001C01D9214
:1000F000AC3EB207E1F710E0C2E6D0E004C02197C1
:10010000FE010E943F06C136D107C9F70E94CE0307
:100110000C9445060C94000096E0899FD0011124B0
:10012000AB59BE4F90967C936E935F9791E09196FA
:100130009C939197E091D201F091D3019091D101DC
:10014000992339F0309751F0811108C080918101D5
:100150000994309719F05C968C91FACF0895CF925C
:10016000DF92EF92FF920F931F9396E0899FF00129
:100170001124EB59FE4F11A2278D30A121303105FA
:1001800051F178F02230310509F451C023303105A6
:1001900009F452C01F910F91FF90EF90DF90CF9024
:1001A00008956623B9F361E070E00E948C002FB7D8
:1001B000F8948091610190916201A0916301B091E6
:1001C00064012FBF8093BD019093BE01A093BF0136
:1001D000B093C001DFCF9FB7F894C0906101D09079
:1001E0006201E0906301F09064019FBF0091BD0146
:1001F0001091BE012091BF013091C001C01AD10AF7
:10020000E20AF30A0091CF011091D00130E020E022
:100210000C151D052E053F0550F462E070E01F919E
:100220000F91FF90EF90DF90CF900C948C006111B4
:10023000B1CF63E070E0F3CF70E060E0F0CFAF9259
:10024000BF92CF92DF92EF92FF920F931F93CF93C3
:10025000DF936C017B018B01040F151FEB015E0125
:10026000AE18BF08C017D10759F06991D601ED91BA
:10027000FC910190F081E02DC6010995892B79F759
:10028000C501DF91CF911F910F91FF90EF90DF900B
:10029000CF90BF90AF900895833081F028F48130E3
:1002A00099F08230A9F008958730A9F08830C9F01C
:1002B0008430B1F4809180008F7D03C080918000F4
:1002C0008F7780938000089584B58F7784BD0895DB
:1002D00084B58F7DFBCF8091B0008F778093B00085
:1002E00008958091B0008F7DF9CFCF93DF93282FB1
:1002F00030E0F901E255FF4F8491F901E656FF4FD6
:10030000D491F901EA57FF4FC491CC23A1F0811198
:100310000E944C01EC2FF0E0EE0FFF1FE458FF4F5E
:10032000A591B491EC91ED2381E090E009F480E097
:10033000DF91CF91089580E090E0FACF862F0C9462
:1003400075011F93CF93DF93282F30E0F901E25519
:10035000FF4F8491F901E656FF4FD491F901EA5716
:10036000FF4FC491CC23A9F0162F81110E944C019C
:10037000EC2FF0E0EE0FFF1FEE58FF4FA591B49168
:100380008FB7F894EC91111108C0D095DE23DC935F
:100390008FBFDF91CF911F910895DE2BF8CF862F6D
:1003A000642F0C94A101CF93DF9390E0FC01E656FB
:1003B000FF4F24918A579F4FFC0184918823C9F0F5
:1003C00090E0880F991FFC01E859FF4FA591B49167
:1003D000FC01EE58FF4FC591D49161110DC09FB73C
:1003E000F8948C91209582238C93888128232883EC
:1003F0009FBFDF91CF910895623051F49FB7F89479
:100400003C91822F809583238C93E8812E2BEFCF14
:100410008FB7F894EC912E2B2C938FBFEACF862FB9
:10042000642F0C94D3013FB7F89480915D019091B3
:100430005E01A0915F01B091600126B5A89B05C047
:100440002F3F19F00196A11DB11D3FBFBA2FA92F53
:10045000982F8827BC01CD01620F711D811D911D50
:1004600042E0660F771F881F991F4A95D1F70895BC
:10047000089590E080E00895CF93DF93EC0160E071
:100480008E810E94A10161E08E810E94A10160E045
:100490008E810E94A1018BE891E00197F1F7DF9135
:1004A000CF910895CF92DF92EF92FF920F931F9317
:1004B000CF93DF936C017C0187E0E80EF11CD0E064
:1004C000C0E0062F10E0B8010C2E02C075956795AC
:1004D0000A94E2F76170F70181917F010E94A10106
:1004E0002196C430D10579F7C601DF91CF911F91D4
:1004F0000F91FF90EF90DF90CF900C943C02CF9241
:10050000DF92EF92FF920F931F93CF93DF93EC0153
:10051000F62E642F8C810E94A1018D818F3F19F0EE
:1005200060E00E94A1010F2D10E08F8584FF25C09F
:100530006E0187E0C80ED11CF12CE12CB8010E2C05
:1005400002C0759567950A94E2F76170F601819192
:100550006F010E94A101FFEFEF1AFF0A88E0E81681
:10056000F10461F7CE01DF91CF911F910F91FF90C0
:10057000EF90DF90CF900C943C02B80184E0759529
:1005800067958A95E1F7CE010E9452026F2DCE0148
:10059000DF91CF911F910F91FF90EF90DF90CF905F
:1005A0000C94520240E0682F84ED91E00C947F029D
:1005B000CF93DF93813029F09091E301986090937D
:1005C000E3018093E7011092E80180E48093E90160
:1005D00080E18093EA0180E58093EB0161E0809106
:1005E000D8010E94D3018091D9018F3F19F061E0B9
:1005F0000E94D30161E08091DA010E94D301C4ED31
:10060000D1E09E01245D31408091E30184FD0BC067
:1006100084E090E021962817390744F461E08E8148
:100620000E94D301EECF88E090E0F4CF8BE39DE011
:100630000197F1F760E08091D8010E94A10160E08C
:100640008091DA010E94A1018091D9018F3F19F0B8
:1006500060E00E94A1018091E30184FD39C063E064
:1006600084ED91E00E945202CBE4D6E4CE010197E2
:10067000F1F763E084ED91E00E9452022197F1F7D7
:1006800063E084ED91E00E94520283E592E00197DD
:10069000F1F762E084ED91E00E9452028091E30163
:1006A00080620E94D20284E08093E4018CE00E9488
:1006B000D20281E00E94D2028BE39FE10197F1F721
:1006C00082E08093E50186E0DF91CF910C94D20225
:1006D00080620E94D2028BE496E40197F1F7809148
:1006E000E30180620E94D20283E592E00197F1F774
:1006F0008091E30180620E94D202D0CF41E00E944B
:100700007F0281E090E008951F920F920FB60F9242
:1007100011242F933F938F939F93AF93BF93809117
:10072000610190916201A0916301B09164013091E7
:100730005C0123E0230F2D3758F50196A11DB11D53
:1007400020935C018093610190936201A093630107
:10075000B093640180915D0190915E01A0915F0171
:10076000B09160010196A11DB11D80935D01909330
:100770005E01A0935F01B0936001BF91AF919F9123
:100780008F913F912F910F900FBE0F901F90189552
:1007900026E8230F0296A11DB11DD2CF789484B50F
:1007A000826084BD84B5816084BD85B5826085BD6D
:1007B00085B5816085BD80916E00816080936E00FB
:1007C00010928100809181008260809381008091ED
:1007D000810081608093810080918000816080939E
:1007E00080008091B10084608093B1008091B0005E
:1007F00081608093B00080917A00846080937A0059
:1008000080917A00826080937A0080917A00816082
:1008100080937A0080917A00806880937A001092A9
:10082000C10084E00E94D802E091E701E23008F0C4
:1008300080C0E150F0E0EC52FE4F848980680E9455
:10084000D2024BE050E06EE271E084ED91E00E9454
:100850001F014CE050E06AE371E084ED91E00E94FA
:100860001F010E9413024B015C0170EDC72E77E05F
:10087000D72EE12CF12C0E941302681979098A09FC
:100880009B09683E734081059105A8F321E0C21AD7
:10089000D108E108F10838EE830E33E0931EA11C65
:1008A000B11CC114D104E104F10429F7812C912C6D
:1008B0005401839451EA652E51E0752E60E0262E96
:1008C00060E0362E81E08093D1018FB7F89440919B
:1008D00061015091620160916301709164018FBF69
:1008E0008091C1019091C201A091C301B091C40156
:1008F000481B590B6A0B7B0B8091CD019091CE0167
:10090000B0E0A0E084179507A607B70708F016C166
:10091000C0E08091CB01C81770F4E091C701F0915D
:10092000C801EC0FF11D62E080810E94D301CF5F0E
:10093000F0CFE1E07FCF512C8091CC01581608F028
:100940005FC0052D10E0E091C901F091CA01E00FF0
:10095000F11F61E080810E94D301E091C901F09113
:10096000CA01E00FF11F60E080810E94A101D50162
:10097000C401052C04C0880F991FAA1FBB1F0A942D
:10098000D2F76C017C01E094F094412C8091CB0172
:100990004816F8F4C42DD0E0E091C701F091C801E9
:1009A000EC0FFD1F80810E9475012496CC0FDD1F86
:1009B000CB59DE4F892B41F4888199818C299D295F
:1009C000998388834394E2CF888199818E219F21E6
:1009D000F7CFE091C901F091CA01E00FF11F61E08A
:1009E00080810E94A1018091C9019091CA01080FE4
:1009F000191F60E0F80180810E94D30153949CCFBD
:100A000005E611E0E8018F8D98A1892B31F41C8E49
:100A10002FEF3FEF3E8F2D8F19A226966C167D0685
:100A200091F7F12C8091CB01F81608F053C0E12C1E
:100A30008F2D90E0880F991FFC01E359FE4F6F0145
:100A40002091CC01E21608F043C0F601608171816B
:100A50000E2C02C0769567950A94E2F7F29E9001FB
:100A600011242E0D311DE5E6F1E080E0458D568D17
:100A70002417350709F48AC08F5F36968A30B1F79C
:100A800060FF24C0E5E6F1E090E080E0448D411194
:100A900018C0E091C501F091C601E20FF31F40813B
:100AA00056E0589FF001599FF00D1124EB59FE4F6D
:100AB000448F368F258F10A2178E61E00E94AF0001
:100AC00005C0019636968A30910501F7E394B8CFB8
:100AD000F394A8CF80E0F80191A19111892F0A5FCA
:100AE0001F4F0C171D07B9F79FB7F894409161018C
:100AF0005091620160916301709164019FBF4093C6
:100B0000C1015093C2016093C3017093C401882353
:100B1000A9F080918601882389F0809184019091C9
:100B20008501019759F4C0918101C1110AC02114B6
:100B3000310409F4C7CE0E940000C4CE1092D10146
:100B4000F6CF81E00E94D2028BE39FE10197F1F79B
:100B5000E091E701E230C0F4E150F0E0EC52FE4FEA
:100B600084898F5F80680E94D20244E150E067E48C
:100B700071E084ED91E00E941F0141E06C2F84ED53
:100B800091E00E947F02D3CFE1E0E7CF617096CF82
:100B90001092D7011092D60186E291E09093D50190
:100BA0008093D4018DE08093D8018FEF8093D90199
:100BB0008CE08093DA018BE08093DB018AE0809304
:100BC000DC0183E18093DD0182E18093DE011092FC
:100BD000DF011092E0011092E1011092E201109207
:100BE000E30181E00E94D8021092670110926B012C
:100BF00010926A0110926C018CE191E09093660171
:100C000080936501E1E8F1E010821482138215827D
:100C1000369681E0ED3BF807B9F784E091E09093D8
:100C2000C8018093C70180E091E09093CA0180934E
:100C3000C90184E08093CB018093CC0188E091E0EE
:100C40009093C6018093C5018AE090E09093CE0115
:100C50008093CD0184EF91E09093D0018093CF01F8
:100C60001092D3011092D2011092C1011092C201D0
:100C70001092C3011092C4011092D1010895EE0F99
:0E0C8000FF1F0590F491E02D0994F894FFCF2A
:100C8E000607080902030405373839413435364260
:100C9E00313233432A302344000000000F02CF01CB
:100CAE009E01000000007E031F0139023802205809
:100CBE00696E206368616F2C2000486179206E6830
:100CCE0061702076616F00206E75742064756F639D
:0C0CDE00206E68616E206C61203A2000DE
:00000001FF
