:020000040000FA
:100000000C945D000C9485000C9485000C94850084
:100010000C9485000C9485000C9485000C9485004C
:100020000C9485000C9485000C9485000C9485003C
:100030000C9485000C9485000C9485000C9485002C
:100040000C941C020C9485000C948C020C94660297
:100050000C9485000C9485000C9485000C9485000C
:100060000C9485000C94850000000008000201003B
:100070000003040700000000000000000000000072
:10008000250028002B0000000000240027002A0083
:10009000040404040404040402020202020203032E
:1000A0000303030301020408102040800102040836
:1000B00010200102040810206B0411241FBECFEF92
:1000C000D8E0DEBFCDBF23E0A4E9B2E001C01D92BD
:1000D000AE33B207E1F712E0A0E0B1E0E2E9FDE003
:1000E00002C005900D92A439B107D9F710E0CDE513
:1000F000D0E004C02197FE010E94CF04CC35D10787
:10010000C9F70E94BE020C94C7060C94000090E050
:10011000FC01EC55FF4F249180579F4FFC018491C7
:10012000882399F090E0880F991FFC01EA57FF4F50
:10013000A591B491FC01E458FF4F859194918FB73C
:10014000F894EC91E22BEC938FBF0895AF92BF929D
:10015000CF92DF92EF92FF920F931F93CF93DF9393
:100160006C017B018B01040F151FEB015E01AE18C2
:10017000BF08C017D10759F06991D601ED91FC91E4
:100180000190F081E02DC6010995892B79F7C50111
:10019000DF91CF911F910F91FF90EF90DF90CF9063
:1001A000BF90AF900895FC01538D448D252F30E012
:1001B000842F90E0821B930B541710F0CF96089574
:1001C00001970895FC01918D828D981761F0A28DA1
:1001D000AE0FBF2FB11D5D968C91928D9F5F9F7367
:1001E000928F90E008958FEF9FEF0895FC01918D1D
:1001F000828D981731F0828DE80FF11D858D90E08A
:1002000008958FEF9FEF0895FC01918D228D892F26
:1002100090E0805C9F4F821B91098F73992708950E
:1002200084E992E00E94040121E0892B09F420E096
:10023000822F089580E090E0892B29F00E94100120
:1002400081110C9400000895FC01A48DA80FB92F12
:10025000B11DA35ABF4F2C91848D90E001968F73EE
:100260009927848FA689B7892C93A089B1898C910D
:10027000837080648C93938D848D981306C002885C
:10028000F389E02D80818F7D80830895EF92FF9226
:100290000F931F93CF93DF93EC0181E0888F9B8DA9
:1002A0008C8D98131AC0E889F989808185FF15C063
:1002B0009FB7F894EE89FF896083E889F989808186
:1002C0008370806480839FBF81E090E0DF91CF9155
:1002D0001F910F91FF90EF900895F62E0B8D10E077
:1002E0000F5F1F4F0F731127E02E8C8D8E110CC0E6
:1002F0000FB607FCFACFE889F989808185FFF5CF31
:10030000CE010E942401F1CFEB8DEC0FFD2FF11DEA
:10031000E35AFF4FF0829FB7F8940B8FEA89FB896D
:1003200080818062CFCFCF93DF93EC01888D8823CB
:10033000B9F0AA89BB89E889F9898C9185FD03C048
:10034000808186FD0DC00FB607FCF7CF8C9185FF2D
:10035000F2CF808185FFEDCFCE010E942401E9CF4D
:10036000DF91CF91089590E0FC01E859FF4F24916F
:10037000FC01EC55FF4F3491FC01E057FF4FE49135
:10038000EE23C9F0222339F0233001F1A8F4213003
:1003900019F1223029F1F0E0EE0FFF1FE458FF4F72
:1003A000A591B4918FB7F894EC91611126C0309566
:1003B0003E233C938FBF08952730A9F02830C9F021
:1003C000243049F7809180008F7D03C080918000A8
:1003D0008F7780938000DFCF84B58F7784BDDBCFAC
:1003E00084B58F7DFBCF8091B0008F778093B00074
:1003F000D2CF8091B0008F7DF9CF3E2BDACF0F9313
:100400001F93CF93DF93082F162FD42FC8E06D2FA3
:100410006170802F0E94B301D69561E0812F0E9408
:10042000B30160E0812F0E94B301C15081F7DF91D9
:10043000CF911F910F9108951F920F920FB60F92B7
:1004400011242F933F938F939F93AF93BF938091EA
:10045000360390913703A0913803B091390330915E
:10046000350323E0230F2D3758F50196A11DB11D4B
:10047000209335038093360390933703A09338037A
:10048000B09339038091310390913203A0913303EB
:10049000B09134030196A11DB11D80933103909357
:1004A0003203A0933303B0933403BF91AF919F9174
:1004B0008F913F912F910F900FBE0F901F90189525
:1004C00026E8230F0296A11DB11DD2CF1F920F92D5
:1004D0000FB60F9211242F933F934F935F936F9317
:1004E0007F938F939F93AF93BF93EF93FF9384E991
:1004F00092E00E942401FF91EF91BF91AF919F91F3
:100500008F917F916F915F914F913F912F910F90BC
:100510000FBE0F901F9018951F920F920FB60F925B
:1005200011242F938F939F93EF93FF93E091A40255
:10053000F091A5028081E091AA02F091AB0282FDC8
:100540001BC090818091AD028F5F8F732091AE02AE
:10055000821741F0E091AD02F0E0EC56FD4F958F2F
:100560008093AD02FF91EF919F918F912F910F900A
:100570000FBE0F901F9018958081F4CFCF93DF931B
:1005800000D000D000D01F92CDB7DEB7789484B5EC
:10059000826084BD84B5816084BD85B5826085BD7F
:1005A00085B5816085BD80916E00816080936E000D
:1005B00010928100809181008260809381008091FF
:1005C00081008160809381008091800081608093B0
:1005D00080008091B10084608093B1008091B00070
:1005E00081608093B00080917A00846080937A006B
:1005F00080917A00826080937A0080917A00816095
:1006000080937A0080917A00806880937A001092BB
:10061000C100E091A402F091A50282E08083E09104
:10062000A002F091A1021082E091A202F091A30237
:100630008FEC80831092AC02E091A802F091A902A5
:1006400086E08083E091A602F091A702808180611C
:100650008083E091A602F091A70280818860808368
:10066000E091A602F091A702808180688083E091EA
:10067000A602F091A70280818F7D808384E00E9492
:10068000870083E00E94870085E00E94870086E063
:100690000E94870082E00E9487006FE070E090E097
:1006A00080E00E94FA059F838E83712C612C009755
:1006B00049F0FC01108265E872E00E94C0062EE05D
:1006C000622E712C2E803F80F12CE12CC30101970A
:1006D0009D838C836E147F0409F4E9C0E0E6F2E0A8
:1006E000FB83EA8398E3C92E91E0D92E80E692E05D
:1006F0008C159D0509F4D4C0EE81FF8180E0EF2BBD
:1007000011F0F1018081EA81FB819191FB83EA8301
:100710009813C2C0B12CA12CE0E0F1E0818181935B
:1007200081E0E730F807D1F7F601EA0DFB1D808183
:1007300080930701412C512C60E084E00E94B301BA
:10074000852C912C840100501F4FF801408165E0F9
:1007500083E00E94FF01F801408565E083E00E948C
:10076000FF01F801408965E083E00E94FF01F40188
:10077000E05DFE4F408166E082E00E94FF0161E0A3
:1007800084E00E94B3015394F8E05F12D5CF439404
:1007900084E14812D0CFE0E1F1E08181819391E0E2
:1007A000E731F907D1F7809108018093170108E03C
:1007B00011E0F801818181938F01F1E00F301F0773
:1007C000C1F78091000180930F018FEFA81AB80A3A
:1007D00098E0A916B10409F09FCFEC81FD81EE15D8
:1007E000FF0509F059C088E1482EE0E0F1E0818181
:1007F000819381E0E730F807D1F79FEF90930701ED
:100800001982512C60E084E00E94B301852C912C68
:10081000F401E050FF4F5F01408165E083E00E94FA
:10082000FF01F501408565E083E00E94FF01F501CD
:10083000408965E083E00E94FF01F401E05DFE4F26
:10084000408166E082E00E94FF0161E084E00E9456
:10085000B3015394F8E05F12D5CF89818F5F89830C
:10086000843179F6E0E1F1E08181819391E0E73133
:10087000F907D1F78091080180931701E8E0F1E0D2
:10088000818181930E171F07D9F780910001809312
:100890000F014A944110A9CFE8E0CE0ED11C26CF1B
:1008A000FFEFEF1AFF0A8FEF281A380A13CFEE81F5
:1008B000FF81309719F0CF010E94710580E090E030
:1008C000892B09F4EACE0E941001882309F4E5CEB1
:1008D0000E940000E2CEE4E9F2E01382128288EE88
:1008E00093E0A0E0B0E084839583A683B78382E29F
:1008F00091E09183808385EC90E09587848784ECF8
:1009000090E09787868780EC90E0918B808B81ECDC
:1009100090E0938B828B82EC90E0958B848B86ECBD
:1009200090E0978B868B118E128E138E148E089505
:100930002F923F924F925F926F927F928F929F92EF
:10094000AF92BF92CF92DF92EF92FF920F931F93DD
:10095000CF93DF93CDB7DEB7CA1BDB0B0FB6F8948E
:10096000DEBF0FBECDBF09942A88398848885F84CE
:100970006E847D848C849B84AA84B984C884DF803F
:10098000EE80FD800C811B81AA81B981CE0FD11D23
:100990000FB6F894DEBF0FBECDBFED010895EE0F88
:1009A000FF1F0590F491E02D09940F931F93CF93AF
:1009B000DF938230910510F482E090E0E0913C03F7
:1009C000F0913D0330E020E0B0E0A0E0309799F4F2
:1009D0002115310509F44AC0281B390B2430310593
:1009E000D8F58A819B816115710589F1FB0193839B
:1009F0008283FE0111C04081518102811381481719
:100A00005907E0F04817590799F4109761F01296CA
:100A10000C93129713961C933296CF01DF91CF91CE
:100A20001F910F91089500933C0310933D03F4CF61
:100A30002115310551F04217530738F0A901DB01A8
:100A40009A01BD01DF01F801C1CFEF01F9CF909309
:100A50003D0380933C03CDCFFE01E20FF31F819352
:100A600091932250310939832883D7CF20913A03BB
:100A700030913B03232B41F420911A0130911B014B
:100A800030933B0320933A032091180130911901D0
:100A90002115310541F42DB73EB740911C0150910D
:100AA0001D01241B350BE0913A03F0913B03E21743
:100AB000F307A0F42E1B3F0B2817390778F0AC0181
:100AC0004E5F5F4F2417350748F04E0F5F1F50935E
:100AD0003B0340933A03819391939FCFF0E0E0E092
:100AE0009CCFCF93DF930097E9F0FC0132971382FC
:100AF0001282A0913C03B0913D03ED0130E020E073
:100B00001097A1F420813181820F931F20913A0325
:100B100030913B032817390709F061C0F0933B037C
:100B2000E0933A03DF91CF910895EA01CE17DF07F2
:100B3000E8F54A815B819E0141155105B1F7E90154
:100B4000FB83EA8349915991C40FD51FEC17FD0728
:100B500061F4808191810296840F951FE901998348
:100B60008883828193819B838A83F0E0E0E0129600
:100B70008D919C9113970097B9F52D913C91119708
:100B8000CD010296820F931F20913A0330913B03CF
:100B90002817390739F6309751F510923D03109216
:100BA0003C03B0933B03A0933A03BCCFD383C283EF
:100BB00040815181840F951FC817D90761F44E5F9A
:100BC0005F4F88819981480F591F518340838A81E3
:100BD0009B81938382832115310509F0B0CFF09377
:100BE0003D03E0933C039ECFFD01DC01C0CF1382A7
:100BF0001282D7CFB0E0A0E0E0E0F6E00C949A04D7
:100C00008C01009751F4CB010E94D5048C01C801DE
:100C1000CDB7DEB7E0E10C94B604FC01E60FF71F98
:100C20009C0122503109E217F30708F49DC0D90155
:100C3000CD91DC911197C617D70798F0C530D10533
:100C400030F3CE0104978617970708F3C61BD70B1E
:100C50002297C193D1936D937C93CF010E9471052C
:100C6000D6CF5B01AC1ABD0A4C018C0E9D1EA09123
:100C70003C03B0913D03512C412CF12CE12C1097F9
:100C800031F580913A0390913B038815990509F05D
:100C90005CC04616570608F058C080911801909124
:100CA0001901009741F48DB79EB740911C015091F6
:100CB0001D01841B950BE817F90708F055C0F09348
:100CC0003B03E0933A03F90171836083A0CF8D91D8
:100CD0009C91119712966C90129713967C90139793
:100CE000A815B90559F56C0142E0C40ED11CCA140F
:100CF000DB0420F1AC014A195B09DA011296159761
:100D000080F06282738251834083D9016D937C931A
:100D1000E114F10471F0D7011396FC93EE9312974E
:100D200076CF22968C0F9D1FF90191838083F3016A
:100D3000EFCFF0933D03E0933C0369CF481659068B
:100D400008F42C017D01D3019ACFCB010E94D50478
:100D50007C01009749F0AE01B8010E94B706C801B6
:100D60000E947105870153CF10E000E050CFFB01D6
:100D7000DC0102C001900D9241505040D8F7089517
:100D8000FB01DC0101900D920020E1F70895F89439
:100D9000FFCFFFFFFFFFFFFFFFFFFFFFFFFFFFFF93
:100DA000FFFFFFFFFFFFFFFFFFFF00003E0380008C
:100DB000000000004601A600D30093010401E200F8
:100DC000F6008040201008040201FFC080B7B78001
:100DD000C0FFFF8080B6B680C9FFFFC180BEBE9C49
:100DE000DDFFFF8080BEBE80C1FFFF8080B6B6BE43
:100DF000BEFFFF8080B7B7BFBFFFFFC180BEBA98FC
:100E0000D9FFFF8080F7F78080FFFFFFBE8080BEA4
:100E1000FFFFFFF9F8BE8081BFFFFF8080E3C99C20
:100E2000BEFFFF8080FEFEFEFEFFFF8080CFE7CF8B
:100E30008080FF8080CFE7F38080FFC180BEBE80CE
:100E4000C1FFFF8080BBBB83C7FFFFC381BDBD80E7
:100E5000C2FFFF8080B3B184CEFFFFCD84B6B690D1
:100E6000D9FFFF9FBF8080BF9FFFFF8180FEFE8074
:100E700080FFFF8381FCFC8183FFFF8080F9F3F911
:100E80008080FF9C88E3F7E3889CFF8F87F0F087E2
:100E90008FFFFFBCB8B2A68E9EFFFFFEEE8080FEE5
:100EA000FEFFFFDC98BAB686CEFFFFDD9CB6B680AB
:100EB000C9FFFFF3EBDB8080FBFFFF8D8CAEAEA0A4
:100EC000B1FFFFC180B6B690D9FFFF9F9FB8A08742
:100ED0009FFFFFC980B6B680C9FFFFCD84B6B6803C
:100EE000C1FFFFC180AEB680C1FFFFFFFFFFFFFF64
:100EF000FFFF4142434445464748494A4B4C4D4E0B
:100F00004F505152535455565758595A3132333421
:100F1000353637383930204841505059204E4557E2
:060F20002059454152007A
:107E0000112484B714BE81FFF0D085E080938100F7
:107E100082E08093C00088E18093C10086E0809377
:107E2000C20080E18093C4008EE0C9D0259A86E02C
:107E300020E33CEF91E0309385002093840096BBD3
:107E4000B09BFECF1D9AA8958150A9F7CC24DD24C4
:107E500088248394B5E0AB2EA1E19A2EF3E0BF2EE7
:107E6000A2D0813461F49FD0082FAFD0023811F036
:107E7000013811F484E001C083E08DD089C08234E0
:107E800011F484E103C0853419F485E0A6D080C0E4
:107E9000853579F488D0E82EFF2485D0082F10E0AE
:107EA000102F00270E291F29000F111F8ED06801E7
:107EB0006FC0863521F484E090D080E0DECF843638
:107EC00009F040C070D06FD0082F6DD080E0C81688
:107ED00080E7D80618F4F601B7BEE895C0E0D1E017
:107EE00062D089930C17E1F7F0E0CF16F0E7DF06D8
:107EF00018F0F601B7BEE89568D007B600FCFDCFD4
:107F0000A601A0E0B1E02C9130E011968C91119780
:107F100090E0982F8827822B932B1296FA010C0160
:107F200087BEE89511244E5F5F4FF1E0A038BF0790
:107F300051F7F601A7BEE89507B600FCFDCF97BE46
:107F4000E89526C08437B1F42ED02DD0F82E2BD052
:107F50003CD0F601EF2C8F010F5F1F4F84911BD097
:107F6000EA94F801C1F70894C11CD11CFA94CF0C13
:107F7000D11C0EC0853739F428D08EE10CD085E9AC
:107F80000AD08FE07ACF813511F488E018D01DD067
:107F900080E101D065CF982F8091C00085FFFCCF94
:107FA0009093C60008958091C00087FFFCCF809118
:107FB000C00084FD01C0A8958091C6000895E0E648
:107FC000F0E098E1908380830895EDDF803219F02E
:107FD00088E0F5DFFFCF84E1DECF1F93182FE3DFCA
:107FE0001150E9F7F2DF1F91089580E0E8DFEE27F6
:047FF000FF270994CA
:027FFE00040479
:00000001FF
